{
  "contractName": "teste",
  "abi": [
    {
      "inputs": [],
      "stateMutability": "nonpayable",
      "type": "constructor"
    },
    {
      "inputs": [
        {
          "internalType": "string",
          "name": "_name",
          "type": "string"
        },
        {
          "internalType": "address",
          "name": "_wallet",
          "type": "address"
        }
      ],
      "name": "addContact",
      "outputs": [],
      "stateMutability": "nonpayable",
      "type": "function"
    },
    {
      "inputs": [
        {
          "internalType": "uint256",
          "name": "_index",
          "type": "uint256"
        }
      ],
      "name": "removeContact",
      "outputs": [],
      "stateMutability": "nonpayable",
      "type": "function"
    },
    {
      "inputs": [],
      "name": "getContacts",
      "outputs": [
        {
          "components": [
            {
              "internalType": "string",
              "name": "name",
              "type": "string"
            },
            {
              "internalType": "address",
              "name": "wallet",
              "type": "address"
            }
          ],
          "internalType": "struct teste.Contact[]",
          "name": "",
          "type": "tuple[]"
        }
      ],
      "stateMutability": "view",
      "type": "function",
      "constant": true
    }
  ],
  "bytecode": "0x608060405234801561001057600080fd5b50600080546001600160a01b03191633179055610823806100326000396000f3fe608060405234801561001057600080fd5b50600436106100415760003560e01c8063603d57a114610046578063708adcd51461005b578063db920b771461006e575b600080fd5b610059610054366004610520565b61008c565b005b61005961006936600461056b565b610209565b6100766102cb565b604051610083919061062d565b60405180910390f35b6000546001600160a01b031633146100bf5760405162461bcd60e51b81526004016100b6906106e3565b60405180910390fd5b60015481106101075760405162461bcd60e51b815260206004820152601460248201527334b73232bc1037baba1037b3103137bab732399760611b60448201526064016100b6565b805b60018054610117919061073f565b8110156101c057600161012a8282610756565b8154811061013a5761013a61076e565b90600052602060002090600202016001828154811061015b5761015b61076e565b9060005260206000209060020201600082018160000190805461017d90610784565b6101889291906103cf565b50600191820154910180546001600160a01b0319166001600160a01b03909216919091179055806101b8816107be565b915050610109565b5060018054806101d2576101d26107d7565b600082815260208120600019909201916002830201906101f2828261045a565b5060010180546001600160a01b0319169055905550565b6000546001600160a01b031633146102335760405162461bcd60e51b81526004016100b6906106e3565b604080518082019091528281526001600160a01b0382166020808301919091526001805480820182556000919091528251805160029092027fb10e2d527612073b26eecdfd717e6a320cf44b4afac2b0732d9fcbe2b7fa0cf6019261029d92849290910190610497565b5060209190910151600190910180546001600160a01b0319166001600160a01b039092169190911790555050565b60606001805480602002602001604051908101604052809291908181526020016000905b828210156103c6578382906000526020600020906002020160405180604001604052908160008201805461032290610784565b80601f016020809104026020016040519081016040528092919081815260200182805461034e90610784565b801561039b5780601f106103705761010080835404028352916020019161039b565b820191906000526020600020905b81548152906001019060200180831161037e57829003601f168201915b50505091835250506001918201546001600160a01b03166020918201529183529290920191016102ef565b50505050905090565b8280546103db90610784565b90600052602060002090601f0160209004810192826103fd576000855561044a565b82601f1061040e578054855561044a565b8280016001018555821561044a57600052602060002091601f016020900482015b8281111561044a57825482559160010191906001019061042f565b5061045692915061050b565b5090565b50805461046690610784565b6000825580601f10610476575050565b601f016020900490600052602060002090810190610494919061050b565b50565b8280546104a390610784565b90600052602060002090601f0160209004810192826104c5576000855561044a565b82601f106104de57805160ff191683800117855561044a565b8280016001018555821561044a579182015b8281111561044a5782518255916020019190600101906104f0565b5b80821115610456576000815560010161050c565b60006020828403121561053257600080fd5b5035919050565b634e487b7160e01b600052604160045260246000fd5b80356001600160a01b038116811461056657600080fd5b919050565b6000806040838503121561057e57600080fd5b823567ffffffffffffffff8082111561059657600080fd5b818501915085601f8301126105aa57600080fd5b8135818111156105bc576105bc610539565b604051601f8201601f19908116603f011681019083821181831017156105e4576105e4610539565b816040528281528860208487010111156105fd57600080fd5b8260208601602083013760006020848301015280965050505050506106246020840161054f565b90509250929050565b60006020808301818452808551808352604092508286019150828160051b8701018488016000805b848110156106d457603f198a8503018652825180518886528051808a880152845b81811015610692578281018c0151888201606001528b01610676565b818111156106a357856060838a0101525b50918a01516001600160a01b0316868b01525095880195601f01601f19169093016060019291870191600101610655565b50919998505050505050505050565b60208082526026908201527f4f6e6c7920746865206f776e65722063616e2063616c6c20746869732066756e60408201526531ba34b7b71760d11b606082015260800190565b634e487b7160e01b600052601160045260246000fd5b60008282101561075157610751610729565b500390565b6000821982111561076957610769610729565b500190565b634e487b7160e01b600052603260045260246000fd5b600181811c9082168061079857607f821691505b6020821081036107b857634e487b7160e01b600052602260045260246000fd5b50919050565b6000600182016107d0576107d0610729565b5060010190565b634e487b7160e01b600052603160045260246000fdfea26469706673582212206b6892d9630f6c3d07aee5cdfe2ee8512f507b38f04711d1fa27103e7bcf3ee264736f6c634300080d0033",
  "immutableReferences": {},
  "source": "// SPDX-License-Identifier: MIT \r\npragma solidity ^0.8.13;\r\npragma experimental ABIEncoderV2;\r\n\r\ncontract teste {\r\n    address private owner;\r\n\r\n    struct Contact {\r\n        string name;\r\n        address wallet;\r\n    }\r\n\r\n    Contact[] private contacts;\r\n\r\n    constructor() {\r\n        owner = msg.sender;\r\n    }\r\n\r\n    modifier onlyOwner() {\r\n        require(msg.sender == owner, \"Only the owner can call this function.\");\r\n        _;\r\n    }\r\n\r\n    function addContact(string memory _name, address _wallet) public onlyOwner {\r\n        contacts.push(Contact(_name, _wallet));\r\n    }\r\n\r\n    function removeContact(uint _index) public onlyOwner {\r\n        require(_index < contacts.length, \"index out of bounds.\");\r\n        for (uint i = _index; i < contacts.length - 1; i++) {\r\n            contacts[i] = contacts[i + 1];\r\n        }\r\n        contacts.pop();\r\n    }\r\n\r\n    function getContacts() public view returns (Contact[] memory) {\r\n        return contacts;\r\n    }\r\n}\r\n",
  "sourcePath": "C:\\Users\\xico\\Desktop\\utad\\2_Semestre\\PROJ\\Votium\\Truffle\\contracts\\teste.sol",
  "compiler": {
    "name": "solc",
    "version": "0.8.13+commit.abaa5c0e.Emscripten.clang"
  },
  "schemaVersion": "3.4.16",
  "updatedAt": "2025-03-27T10:25:52.366Z",
  "networkType": "ethereum",
  "devdoc": {
    "kind": "dev",
    "methods": {},
    "version": 1
  },
  "userdoc": {
    "kind": "user",
    "methods": {},
    "version": 1
  }
}