{
  "contractName": "Votacao",
  "abi": [
    {
      "anonymous": false,
      "inputs": [
        {
          "indexed": true,
          "internalType": "address",
          "name": "votante",
          "type": "address"
        },
        {
          "indexed": false,
          "internalType": "uint256",
          "name": "candidatoId",
          "type": "uint256"
        },
        {
          "indexed": false,
          "internalType": "string",
          "name": "codigoPessoal",
          "type": "string"
        }
      ],
      "name": "VotoRegistrado",
      "type": "event"
    },
    {
      "inputs": [
        {
          "internalType": "address",
          "name": "",
          "type": "address"
        }
      ],
      "name": "jaVotou",
      "outputs": [
        {
          "internalType": "bool",
          "name": "",
          "type": "bool"
        }
      ],
      "stateMutability": "view",
      "type": "function"
    },
    {
      "inputs": [
        {
          "internalType": "string",
          "name": "",
          "type": "string"
        }
      ],
      "name": "votos",
      "outputs": [
        {
          "internalType": "uint256",
          "name": "candidatoId",
          "type": "uint256"
        },
        {
          "internalType": "string",
          "name": "codigoPessoal",
          "type": "string"
        },
        {
          "internalType": "address",
          "name": "votante",
          "type": "address"
        }
      ],
      "stateMutability": "view",
      "type": "function"
    },
    {
      "inputs": [
        {
          "internalType": "uint256",
          "name": "_candidatoId",
          "type": "uint256"
        },
        {
          "internalType": "string",
          "name": "_codigoPessoal",
          "type": "string"
        }
      ],
      "name": "votar",
      "outputs": [],
      "stateMutability": "nonpayable",
      "type": "function"
    },
    {
      "inputs": [
        {
          "internalType": "string",
          "name": "_codigoPessoal",
          "type": "string"
        }
      ],
      "name": "consultarVoto",
      "outputs": [
        {
          "internalType": "uint256",
          "name": "candidatoId",
          "type": "uint256"
        },
        {
          "internalType": "address",
          "name": "votante",
          "type": "address"
        }
      ],
      "stateMutability": "view",
      "type": "function"
    }
  ],
  "bytecode": "0x608060405234801561001057600080fd5b506107e4806100206000396000f3fe608060405234801561001057600080fd5b506004361061004c5760003560e01c806319d6892f146100515780633260e7a2146100865780633fccc6c1146100b95780638ced3947146100ce575b600080fd5b61006461005f3660046105fe565b6100f0565b604080519283526001600160a01b039091166020830152015b60405180910390f35b6100a961009436600461063b565b60016020526000908152604090205460ff1681565b604051901515815260200161007d565b6100cc6100c736600461066b565b61025c565b005b6100e16100dc3660046105fe565b610403565b60405161007d9392919061070e565b600080600083604051610103919061073f565b9081526020016040518091039020600101805461011f9061075b565b905060000361016e5760405162461bcd60e51b8152602060048201526016602482015275436f6469676f206e616f20656e636f6e747261646f2160501b60448201526064015b60405180910390fd5b6000808460405161017f919061073f565b9081526020016040518091039020604051806060016040529081600082015481526020016001820180546101b29061075b565b80601f01602080910402602001604051908101604052809291908181526020018280546101de9061075b565b801561022b5780601f106102005761010080835404028352916020019161022b565b820191906000526020600020905b81548152906001019060200180831161020e57829003601f168201915b5050509183525050600291909101546001600160a01b03166020909101528051604090910151909590945092505050565b3360009081526001602052604090205460ff16156102a85760405162461bcd60e51b81526020600482015260096024820152684a6120766f746f752160b81b6044820152606401610165565b6000816040516102b8919061073f565b908152602001604051809103902060010180546102d49061075b565b1590506103235760405162461bcd60e51b815260206004820152601960248201527f4573746520636f6469676f206a6120666f6920757361646f21000000000000006044820152606401610165565b60408051606081018252838152602081018390523381830152905160009061034c90849061073f565b90815260200160405180910390206000820151816000015560208201518160010190805190602001906103809291906104c2565b5060409182015160029190910180546001600160a01b0319166001600160a01b039092169190911790553360008181526001602081905290839020805460ff1916909117905590517f71c441ae2f969acfe9730a0ae1efc829e62b563d3bf957b89a3dc80b1776031d906103f79085908590610795565b60405180910390a25050565b8051602081830181018051600082529282019190930120915280546001820180549192916104309061075b565b80601f016020809104026020016040519081016040528092919081815260200182805461045c9061075b565b80156104a95780601f1061047e576101008083540402835291602001916104a9565b820191906000526020600020905b81548152906001019060200180831161048c57829003601f168201915b505050600290930154919250506001600160a01b031683565b8280546104ce9061075b565b90600052602060002090601f0160209004810192826104f05760008555610536565b82601f1061050957805160ff1916838001178555610536565b82800160010185558215610536579182015b8281111561053657825182559160200191906001019061051b565b50610542929150610546565b5090565b5b808211156105425760008155600101610547565b634e487b7160e01b600052604160045260246000fd5b600082601f83011261058257600080fd5b813567ffffffffffffffff8082111561059d5761059d61055b565b604051601f8301601f19908116603f011681019082821181831017156105c5576105c561055b565b816040528381528660208588010111156105de57600080fd5b836020870160208301376000602085830101528094505050505092915050565b60006020828403121561061057600080fd5b813567ffffffffffffffff81111561062757600080fd5b61063384828501610571565b949350505050565b60006020828403121561064d57600080fd5b81356001600160a01b038116811461066457600080fd5b9392505050565b6000806040838503121561067e57600080fd5b82359150602083013567ffffffffffffffff81111561069c57600080fd5b6106a885828601610571565b9150509250929050565b60005b838110156106cd5781810151838201526020016106b5565b838111156106dc576000848401525b50505050565b600081518084526106fa8160208601602086016106b2565b601f01601f19169290920160200192915050565b83815260606020820152600061072760608301856106e2565b905060018060a01b0383166040830152949350505050565b600082516107518184602087016106b2565b9190910192915050565b600181811c9082168061076f57607f821691505b60208210810361078f57634e487b7160e01b600052602260045260246000fd5b50919050565b82815260406020820152600061063360408301846106e256fea2646970667358221220756eae0ed619dc9f9eb34811f80b2e63ac744caae328fc5b0dfc2e8921868f3064736f6c634300080d0033",
  "immutableReferences": {},
  "source": "// SPDX-License-Identifier: MIT\r\npragma solidity ^0.8.13;\r\n\r\ncontract Votacao {\r\n    // Estrutura para armazenar um voto\r\n    struct Voto {\r\n        uint candidatoId;\r\n        string codigoPessoal;\r\n        address votante;\r\n    }\r\n\r\n    // Mapeamento que associa um código ao voto\r\n    mapping(string => Voto) public votos;\r\n\r\n    // Mapeamento para verificar se o endereço já votou\r\n    mapping(address => bool) public jaVotou;\r\n\r\n    // Evento para emitir quando um voto é registrado\r\n    event VotoRegistrado(\r\n        address indexed votante,\r\n        uint candidatoId,\r\n        string codigoPessoal\r\n    );\r\n\r\n    // Função para votar\r\n    function votar(uint _candidatoId, string memory _codigoPessoal) public {\r\n        // Verificar se o votante já votou\r\n        require(!jaVotou[msg.sender], \"Ja votou!\");\r\n\r\n        // Verificar se o código pessoal é único (não duplicado)\r\n        require(\r\n            bytes(votos[_codigoPessoal].codigoPessoal).length == 0,\r\n            \"Este codigo ja foi usado!\"\r\n        );\r\n\r\n        // Registrar o voto\r\n        votos[_codigoPessoal] = Voto({\r\n            candidatoId: _candidatoId,\r\n            codigoPessoal: _codigoPessoal,\r\n            votante: msg.sender\r\n        });\r\n\r\n        // Marcar que o votante já votou\r\n        jaVotou[msg.sender] = true;\r\n\r\n        // Emitir o evento de voto\r\n        emit VotoRegistrado(msg.sender, _candidatoId, _codigoPessoal);\r\n    }\r\n\r\n    // Função para consultar o voto de um código\r\n    function consultarVoto(\r\n        string memory _codigoPessoal\r\n    ) public view returns (uint candidatoId, address votante) {\r\n        require(\r\n            bytes(votos[_codigoPessoal].codigoPessoal).length != 0,\r\n            \"Codigo nao encontrado!\"\r\n        );\r\n        Voto memory voto = votos[_codigoPessoal];\r\n        return (voto.candidatoId, voto.votante);\r\n    }\r\n}\r\n",
  "sourcePath": "C:\\Users\\xico\\Desktop\\utad\\2_Semestre\\PROJ\\Votium\\Truffle\\contracts\\Votacao.sol",
  "compiler": {
    "name": "solc",
    "version": "0.8.13+commit.abaa5c0e.Emscripten.clang"
  },
  "schemaVersion": "3.4.16",
  "updatedAt": "2025-06-12T12:37:04.244Z",
  "devdoc": {
    "kind": "dev",
    "methods": {},
    "version": 1
  },
  "userdoc": {
    "kind": "user",
    "methods": {},
    "version": 1
  }
}