{
  "contractName": "Voto",
  "abi": [
    {
      "anonymous": false,
      "inputs": [
        {
          "indexed": true,
          "internalType": "address",
          "name": "votante",
          "type": "address"
        },
        {
          "indexed": false,
          "internalType": "uint256",
          "name": "candidatoId",
          "type": "uint256"
        },
        {
          "indexed": false,
          "internalType": "string",
          "name": "codigoPessoal",
          "type": "string"
        }
      ],
      "name": "VotoRegistado",
      "type": "event"
    },
    {
      "inputs": [
        {
          "internalType": "address",
          "name": "",
          "type": "address"
        }
      ],
      "name": "jaVotou",
      "outputs": [
        {
          "internalType": "bool",
          "name": "",
          "type": "bool"
        }
      ],
      "stateMutability": "view",
      "type": "function",
      "constant": true
    },
    {
      "inputs": [
        {
          "internalType": "bytes32",
          "name": "",
          "type": "bytes32"
        }
      ],
      "name": "votos",
      "outputs": [
        {
          "internalType": "uint256",
          "name": "candidatoId",
          "type": "uint256"
        },
        {
          "internalType": "string",
          "name": "codigoPessoal",
          "type": "string"
        },
        {
          "internalType": "address",
          "name": "votante",
          "type": "address"
        }
      ],
      "stateMutability": "view",
      "type": "function",
      "constant": true
    },
    {
      "inputs": [
        {
          "internalType": "uint256",
          "name": "_candidatoId",
          "type": "uint256"
        },
        {
          "internalType": "string",
          "name": "_codigoPessoal",
          "type": "string"
        }
      ],
      "name": "votar",
      "outputs": [],
      "stateMutability": "nonpayable",
      "type": "function"
    },
    {
      "inputs": [
        {
          "internalType": "string",
          "name": "_codigoPessoal",
          "type": "string"
        }
      ],
      "name": "consultarVoto",
      "outputs": [
        {
          "internalType": "uint256",
          "name": "candidatoId",
          "type": "uint256"
        }
      ],
      "stateMutability": "view",
      "type": "function",
      "constant": true
    }
  ],
  "bytecode": "0x608060405234801561001057600080fd5b506107dc806100206000396000f3fe608060405234801561001057600080fd5b506004361061004c5760003560e01c806319d6892f146100515780633260e7a2146100775780633fccc6c1146100aa578063943e2b85146100bf575b600080fd5b61006461005f3660046105dd565b6100e1565b6040519081526020015b60405180910390f35b61009a61008536600461061a565b60016020526000908152604090205460ff1681565b604051901515815260200161006e565b6100bd6100b836600461064a565b610244565b005b6100d26100cd366004610691565b6103ed565b60405161006e93929190610706565b600080826040516020016100f59190610737565b60408051601f1981840301815291815281516020928301206000818152928390529120600201549091506001600160a01b031661016b5760405162461bcd60e51b815260206004820152600f60248201526e436f6465206e6f7420666f756e642160881b60448201526064015b60405180910390fd5b6000806000838152602001908152602001600020604051806060016040529081600082015481526020016001820180546101a490610753565b80601f01602080910402602001604051908101604052809291908181526020018280546101d090610753565b801561021d5780601f106101f25761010080835404028352916020019161021d565b820191906000526020600020905b81548152906001019060200180831161020057829003601f168201915b5050509183525050600291909101546001600160a01b031660209091015251949350505050565b3360009081526001602052604090205460ff16156102955760405162461bcd60e51b815260206004820152600e60248201526d416c726561647920766f7465642160901b6044820152606401610162565b6000816040516020016102a89190610737565b60408051601f1981840301815291815281516020928301206000818152928390529120600201549091506001600160a01b0316156103285760405162461bcd60e51b815260206004820181905260248201527f5468697320636f64652068617320616c7265616479206265656e2075736564216044820152606401610162565b6040805160608101825284815260208082018581523383850152600085815280835293909320825181559251805192939261036992600185019201906104a1565b5060409182015160029190910180546001600160a01b0319166001600160a01b039092169190911790553360008181526001602081905290839020805460ff1916909117905590517f62361f61198a1d5fc4aaefd6f04fffb3321b1ad01d133f685ce3c6d9afa7288a906103e0908690869061078d565b60405180910390a2505050565b6000602081905290815260409020805460018201805491929161040f90610753565b80601f016020809104026020016040519081016040528092919081815260200182805461043b90610753565b80156104885780601f1061045d57610100808354040283529160200191610488565b820191906000526020600020905b81548152906001019060200180831161046b57829003601f168201915b505050600290930154919250506001600160a01b031683565b8280546104ad90610753565b90600052602060002090601f0160209004810192826104cf5760008555610515565b82601f106104e857805160ff1916838001178555610515565b82800160010185558215610515579182015b828111156105155782518255916020019190600101906104fa565b50610521929150610525565b5090565b5b808211156105215760008155600101610526565b634e487b7160e01b600052604160045260246000fd5b600082601f83011261056157600080fd5b813567ffffffffffffffff8082111561057c5761057c61053a565b604051601f8301601f19908116603f011681019082821181831017156105a4576105a461053a565b816040528381528660208588010111156105bd57600080fd5b836020870160208301376000602085830101528094505050505092915050565b6000602082840312156105ef57600080fd5b813567ffffffffffffffff81111561060657600080fd5b61061284828501610550565b949350505050565b60006020828403121561062c57600080fd5b81356001600160a01b038116811461064357600080fd5b9392505050565b6000806040838503121561065d57600080fd5b82359150602083013567ffffffffffffffff81111561067b57600080fd5b61068785828601610550565b9150509250929050565b6000602082840312156106a357600080fd5b5035919050565b60005b838110156106c55781810151838201526020016106ad565b838111156106d4576000848401525b50505050565b600081518084526106f28160208601602086016106aa565b601f01601f19169290920160200192915050565b83815260606020820152600061071f60608301856106da565b905060018060a01b0383166040830152949350505050565b600082516107498184602087016106aa565b9190910192915050565b600181811c9082168061076757607f821691505b60208210810361078757634e487b7160e01b600052602260045260246000fd5b50919050565b82815260406020820152600061061260408301846106da56fea2646970667358221220985ca3fd3fd2012365ca2016e9a1ec7c769c05979c45ef2b6cd72a02310b03ee64736f6c634300080d0033",
  "immutableReferences": {},
  "source": "// SPDX-License-Identifier: MIT\r\npragma solidity ^0.8.13;\r\n\r\ncontract Voto {\r\n    struct Votacao {\r\n        uint candidatoId;\r\n        string codigoPessoal; \r\n        address votante;\r\n    }\r\n\r\n    mapping(bytes32 => Votacao) public votos;\r\n\r\n    mapping(address => bool) public jaVotou;\r\n\r\n    event VotoRegistado(\r\n        address indexed votante,\r\n        uint candidatoId,\r\n        string codigoPessoal\r\n    );\r\n\r\n    function votar(uint _candidatoId, string memory _codigoPessoal) public {\r\n        require(!jaVotou[msg.sender], \"Already voted!\");\r\n\r\n        bytes32 hashCodigo = keccak256(abi.encodePacked(_codigoPessoal));\r\n        require(\r\n            votos[hashCodigo].votante == address(0),\r\n            \"This code has already been used!\"\r\n        );\r\n\r\n        votos[hashCodigo] = Votacao({\r\n            candidatoId: _candidatoId,\r\n            codigoPessoal: _codigoPessoal,\r\n            votante: msg.sender\r\n        });\r\n\r\n        jaVotou[msg.sender] = true;\r\n\r\n        emit VotoRegistado(msg.sender, _candidatoId, _codigoPessoal);\r\n    }\r\n\r\n    function consultarVoto(\r\n        string memory _codigoPessoal\r\n    ) public view returns (uint candidatoId) {\r\n        bytes32 hashCodigo = keccak256(abi.encodePacked(_codigoPessoal));\r\n\r\n        require(\r\n            votos[hashCodigo].votante != address(0),\r\n            \"Code not found!\"\r\n        );\r\n\r\n        Votacao memory voto = votos[hashCodigo];\r\n        return voto.candidatoId;\r\n    }\r\n}\r\n",
  "sourcePath": "C:\\Users\\franc\\Desktop\\Votium\\Truffle\\contracts\\Voto.sol",
  "compiler": {
    "name": "solc",
    "version": "0.8.13+commit.abaa5c0e.Emscripten.clang"
  },
  "schemaVersion": "3.4.16",
  "updatedAt": "2025-05-21T14:46:50.092Z",
  "networkType": "ethereum",
  "devdoc": {
    "kind": "dev",
    "methods": {},
    "version": 1
  },
  "userdoc": {
    "kind": "user",
    "methods": {},
    "version": 1
  }
}