{
  "contractName": "Voto",
  "abi": [
    {
      "inputs": [],
      "stateMutability": "nonpayable",
      "type": "constructor"
    },
    {
      "anonymous": false,
      "inputs": [
        {
          "indexed": true,
          "internalType": "address",
          "name": "votante",
          "type": "address"
        },
        {
          "indexed": false,
          "internalType": "uint256",
          "name": "candidatoId",
          "type": "uint256"
        },
        {
          "indexed": false,
          "internalType": "string",
          "name": "codigoPessoal",
          "type": "string"
        }
      ],
      "name": "VotoRegistado",
      "type": "event"
    },
    {
      "inputs": [
        {
          "internalType": "uint256",
          "name": "",
          "type": "uint256"
        },
        {
          "internalType": "uint256",
          "name": "",
          "type": "uint256"
        }
      ],
      "name": "codigosPorCandidato",
      "outputs": [
        {
          "internalType": "string",
          "name": "",
          "type": "string"
        }
      ],
      "stateMutability": "view",
      "type": "function",
      "constant": true
    },
    {
      "inputs": [
        {
          "internalType": "address",
          "name": "",
          "type": "address"
        }
      ],
      "name": "jaVotou",
      "outputs": [
        {
          "internalType": "bool",
          "name": "",
          "type": "bool"
        }
      ],
      "stateMutability": "view",
      "type": "function",
      "constant": true
    },
    {
      "inputs": [
        {
          "internalType": "uint256",
          "name": "",
          "type": "uint256"
        }
      ],
      "name": "todosCodigos",
      "outputs": [
        {
          "internalType": "string",
          "name": "",
          "type": "string"
        }
      ],
      "stateMutability": "view",
      "type": "function",
      "constant": true
    },
    {
      "inputs": [],
      "name": "totalVotos",
      "outputs": [
        {
          "internalType": "uint256",
          "name": "",
          "type": "uint256"
        }
      ],
      "stateMutability": "view",
      "type": "function",
      "constant": true
    },
    {
      "inputs": [
        {
          "internalType": "bytes32",
          "name": "",
          "type": "bytes32"
        }
      ],
      "name": "votos",
      "outputs": [
        {
          "internalType": "uint256",
          "name": "candidatoId",
          "type": "uint256"
        },
        {
          "internalType": "string",
          "name": "codigoPessoal",
          "type": "string"
        },
        {
          "internalType": "address",
          "name": "votante",
          "type": "address"
        }
      ],
      "stateMutability": "view",
      "type": "function",
      "constant": true
    },
    {
      "inputs": [
        {
          "internalType": "uint256",
          "name": "",
          "type": "uint256"
        }
      ],
      "name": "votosPorCandidato",
      "outputs": [
        {
          "internalType": "uint256",
          "name": "",
          "type": "uint256"
        }
      ],
      "stateMutability": "view",
      "type": "function",
      "constant": true
    },
    {
      "inputs": [
        {
          "internalType": "uint256",
          "name": "_candidatoId",
          "type": "uint256"
        },
        {
          "internalType": "string",
          "name": "_codigoPessoal",
          "type": "string"
        }
      ],
      "name": "votar",
      "outputs": [],
      "stateMutability": "nonpayable",
      "type": "function"
    },
    {
      "inputs": [
        {
          "internalType": "string",
          "name": "_codigoPessoal",
          "type": "string"
        }
      ],
      "name": "consultarVoto",
      "outputs": [
        {
          "internalType": "uint256",
          "name": "candidatoId",
          "type": "uint256"
        }
      ],
      "stateMutability": "view",
      "type": "function",
      "constant": true
    },
    {
      "inputs": [
        {
          "internalType": "uint256",
          "name": "_candidatoId",
          "type": "uint256"
        }
      ],
      "name": "obterVotosPorCandidato",
      "outputs": [
        {
          "internalType": "uint256",
          "name": "",
          "type": "uint256"
        }
      ],
      "stateMutability": "view",
      "type": "function",
      "constant": true
    },
    {
      "inputs": [],
      "name": "obterTotalVotos",
      "outputs": [
        {
          "internalType": "uint256",
          "name": "",
          "type": "uint256"
        }
      ],
      "stateMutability": "view",
      "type": "function",
      "constant": true
    },
    {
      "inputs": [
        {
          "internalType": "uint256",
          "name": "_candidatoId",
          "type": "uint256"
        }
      ],
      "name": "obterNumeroCodigosPorCandidato",
      "outputs": [
        {
          "internalType": "uint256",
          "name": "",
          "type": "uint256"
        }
      ],
      "stateMutability": "view",
      "type": "function",
      "constant": true
    },
    {
      "inputs": [
        {
          "internalType": "uint256",
          "name": "_candidatoId",
          "type": "uint256"
        },
        {
          "internalType": "uint256",
          "name": "_indice",
          "type": "uint256"
        }
      ],
      "name": "obterCodigoPorCandidatoEIndice",
      "outputs": [
        {
          "internalType": "string",
          "name": "",
          "type": "string"
        }
      ],
      "stateMutability": "view",
      "type": "function",
      "constant": true
    },
    {
      "inputs": [
        {
          "internalType": "uint256",
          "name": "_candidatoId",
          "type": "uint256"
        },
        {
          "internalType": "uint256",
          "name": "_inicio",
          "type": "uint256"
        },
        {
          "internalType": "uint256",
          "name": "_fim",
          "type": "uint256"
        }
      ],
      "name": "obterCodigosPorCandidato",
      "outputs": [
        {
          "internalType": "string[]",
          "name": "",
          "type": "string[]"
        }
      ],
      "stateMutability": "view",
      "type": "function",
      "constant": true
    }
  ],
  "bytecode": "0x608060405234801561001057600080fd5b50610e91806100206000396000f3fe608060405234801561001057600080fd5b50600436106100cf5760003560e01c806384f272371161008c57806398dfd7c01161006657806398dfd7c0146101e0578063a72a46d314610200578063b111fbc514610213578063f0a51e501461023357600080fd5b806384f272371461018b578063943e2b851461019e578063989656b1146101c057600080fd5b806319d6892f146100d45780633260e7a2146100fa5780633fccc6c11461012d5780634bd2c7011461014257806370e36064146101625780638238afba1461016b575b600080fd5b6100e76100e2366004610b73565b61023b565b6040519081526020015b60405180910390f35b61011d610108366004610bb0565b60016020526000908152604090205460ff1681565b60405190151581526020016100f1565b61014061013b366004610be0565b6102e1565b005b610155610150366004610c27565b610537565b6040516100f19190610ca5565b6100e760035481565b61017e610179366004610cb8565b610652565b6040516100f19190610ce4565b610155610199366004610c27565b61089f565b6101b16101ac366004610d46565b610958565b6040516100f193929190610d5f565b6100e76101ce366004610d46565b60026020526000908152604090205481565b6100e76101ee366004610d46565b60009081526005602052604090205490565b61015561020e366004610d46565b610a0c565b6100e7610221366004610d46565b60009081526002602052604090205490565b6003546100e7565b6000808260405160200161024f9190610d90565b60408051601f1981840301815291815281516020928301206000818152928390529120600201549091506001600160a01b03166102cc5760405162461bcd60e51b8152602060048201526016602482015275436f6469676f206e616f20656e636f6e747261646f2160501b60448201526064015b60405180910390fd5b60009081526020819052604090205492915050565b3360009081526001602052604090205460ff161561032f5760405162461bcd60e51b815260206004820152600b60248201526a4a6120766f74617374652160a81b60448201526064016102c3565b6000816040516020016103429190610d90565b60408051601f1981840301815291815281516020928301206000818152928390529120600201549091506001600160a01b0316156103c25760405162461bcd60e51b815260206004820152601960248201527f4573746520636f6469676f206a6120666f6920757361646f210000000000000060448201526064016102c3565b604080516060810182528481526020808201858152338385015260008581528083529390932082518155925180519293926104039260018501920190610a37565b50604091820151600291820180546001600160a01b0319166001600160a01b0390921691909117905533600090815260016020818152848320805460ff19169092179091558682529190915290812080549161045e83610dc2565b90915550506003805490600061047383610dc2565b90915550506004805460018101825560009190915282516104bb917f8a35acfbc15ff81a39ae7d344fd709f28e8600b4aa8c65c6b64bfe7fe36bd19b01906020850190610a37565b506000838152600560209081526040822080546001810182559083529181902084516104ee939190910191850190610a37565b50336001600160a01b03167f62361f61198a1d5fc4aaefd6f04fffb3321b1ad01d133f685ce3c6d9afa7288a848460405161052a929190610ddb565b60405180910390a2505050565b60008281526005602052604090205460609082106105975760405162461bcd60e51b815260206004820152601760248201527f496e6469636520666f726120646f73206c696d6974657300000000000000000060448201526064016102c3565b60008381526005602052604090208054839081106105b7576105b7610df4565b9060005260206000200180546105cc90610e0a565b80601f01602080910402602001604051908101604052809291908181526020018280546105f890610e0a565b80156106455780601f1061061a57610100808354040283529160200191610645565b820191906000526020600020905b81548152906001019060200180831161062857829003601f168201915b5050505050905092915050565b60008381526005602052604090205460609083106106b25760405162461bcd60e51b815260206004820152601760248201527f496e6963696f20666f726120646f73206c696d6974657300000000000000000060448201526064016102c3565b6000848152600560205260409020548211156106da5760008481526005602052604090205491505b60646106e68484610e44565b11156107445760405162461bcd60e51b815260206004820152602760248201527f4d7569746f7320636f6469676f7320736f6c6963697461646f732e204c696d69604482015266074653a203130360cc1b60648201526084016102c3565b60006107508484610e44565b67ffffffffffffffff81111561076857610768610ad0565b60405190808252806020026020018201604052801561079b57816020015b60608152602001906001900390816107865790505b509050835b838110156108965760008681526005602052604090208054829081106107c8576107c8610df4565b9060005260206000200180546107dd90610e0a565b80601f016020809104026020016040519081016040528092919081815260200182805461080990610e0a565b80156108565780601f1061082b57610100808354040283529160200191610856565b820191906000526020600020905b81548152906001019060200180831161083957829003601f168201915b50505050508286836108689190610e44565b8151811061087857610878610df4565b6020026020010181905250808061088e90610dc2565b9150506107a0565b50949350505050565b600560205281600052604060002081815481106108bb57600080fd5b906000526020600020016000915091505080546108d790610e0a565b80601f016020809104026020016040519081016040528092919081815260200182805461090390610e0a565b80156109505780601f1061092557610100808354040283529160200191610950565b820191906000526020600020905b81548152906001019060200180831161093357829003601f168201915b505050505081565b6000602081905290815260409020805460018201805491929161097a90610e0a565b80601f01602080910402602001604051908101604052809291908181526020018280546109a690610e0a565b80156109f35780601f106109c8576101008083540402835291602001916109f3565b820191906000526020600020905b8154815290600101906020018083116109d657829003601f168201915b505050600290930154919250506001600160a01b031683565b60048181548110610a1c57600080fd5b9060005260206000200160009150905080546108d790610e0a565b828054610a4390610e0a565b90600052602060002090601f016020900481019282610a655760008555610aab565b82601f10610a7e57805160ff1916838001178555610aab565b82800160010185558215610aab579182015b82811115610aab578251825591602001919060010190610a90565b50610ab7929150610abb565b5090565b5b80821115610ab75760008155600101610abc565b634e487b7160e01b600052604160045260246000fd5b600082601f830112610af757600080fd5b813567ffffffffffffffff80821115610b1257610b12610ad0565b604051601f8301601f19908116603f01168101908282118183101715610b3a57610b3a610ad0565b81604052838152866020858801011115610b5357600080fd5b836020870160208301376000602085830101528094505050505092915050565b600060208284031215610b8557600080fd5b813567ffffffffffffffff811115610b9c57600080fd5b610ba884828501610ae6565b949350505050565b600060208284031215610bc257600080fd5b81356001600160a01b0381168114610bd957600080fd5b9392505050565b60008060408385031215610bf357600080fd5b82359150602083013567ffffffffffffffff811115610c1157600080fd5b610c1d85828601610ae6565b9150509250929050565b60008060408385031215610c3a57600080fd5b50508035926020909101359150565b60005b83811015610c64578181015183820152602001610c4c565b83811115610c73576000848401525b50505050565b60008151808452610c91816020860160208601610c49565b601f01601f19169290920160200192915050565b602081526000610bd96020830184610c79565b600080600060608486031215610ccd57600080fd5b505081359360208301359350604090920135919050565b6000602080830181845280855180835260408601915060408160051b870101925083870160005b82811015610d3957603f19888603018452610d27858351610c79565b94509285019290850190600101610d0b565b5092979650505050505050565b600060208284031215610d5857600080fd5b5035919050565b838152606060208201526000610d786060830185610c79565b905060018060a01b0383166040830152949350505050565b60008251610da2818460208701610c49565b9190910192915050565b634e487b7160e01b600052601160045260246000fd5b600060018201610dd457610dd4610dac565b5060010190565b828152604060208201526000610ba86040830184610c79565b634e487b7160e01b600052603260045260246000fd5b600181811c90821680610e1e57607f821691505b602082108103610e3e57634e487b7160e01b600052602260045260246000fd5b50919050565b600082821015610e5657610e56610dac565b50039056fea2646970667358221220e75018166023a018e70300ce7f4faeab24cb6069b05893025725d82574ef59e864736f6c634300080d0033",
  "immutableReferences": {},
  "source": "// SPDX-License-Identifier: MIT\r\npragma solidity ^0.8.13;\r\n\r\ncontract Voto {\r\n    struct Votacao {\r\n        uint candidatoId;\r\n        string codigoPessoal;\r\n        address votante;\r\n    }\r\n\r\n    mapping(bytes32 => Votacao) public votos;\r\n    mapping(address => bool) public jaVotou;\r\n    mapping(uint => uint) public votosPorCandidato;\r\n    uint public totalVotos;\r\n\r\n    string[] public todosCodigos;\r\n    mapping(uint => string[]) public codigosPorCandidato;\r\n\r\n    event VotoRegistado(\r\n        address indexed votante,\r\n        uint candidatoId,\r\n        string codigoPessoal\r\n    );\r\n\r\n    constructor() {}\r\n\r\n    function votar(uint _candidatoId, string memory _codigoPessoal) public {\r\n        require(!jaVotou[msg.sender], \"Ja votaste!\");\r\n\r\n        bytes32 hashCodigo = keccak256(abi.encodePacked(_codigoPessoal));\r\n        require(\r\n            votos[hashCodigo].votante == address(0),\r\n            \"Este codigo ja foi usado!\"\r\n        );\r\n\r\n        votos[hashCodigo] = Votacao({\r\n            candidatoId: _candidatoId,\r\n            codigoPessoal: _codigoPessoal,\r\n            votante: msg.sender\r\n        });\r\n\r\n        jaVotou[msg.sender] = true;\r\n        votosPorCandidato[_candidatoId]++;\r\n        totalVotos++;\r\n\r\n        todosCodigos.push(_codigoPessoal);\r\n        codigosPorCandidato[_candidatoId].push(_codigoPessoal);\r\n\r\n        emit VotoRegistado(msg.sender, _candidatoId, _codigoPessoal);\r\n    }\r\n\r\n    function consultarVoto(\r\n        string memory _codigoPessoal\r\n    ) public view returns (uint candidatoId) {\r\n        bytes32 hashCodigo = keccak256(abi.encodePacked(_codigoPessoal));\r\n        require(\r\n            votos[hashCodigo].votante != address(0),\r\n            \"Codigo nao encontrado!\"\r\n        );\r\n        return votos[hashCodigo].candidatoId;\r\n    }\r\n\r\n    function obterVotosPorCandidato(\r\n        uint _candidatoId\r\n    ) public view returns (uint) {\r\n        return votosPorCandidato[_candidatoId];\r\n    }\r\n\r\n    function obterTotalVotos() public view returns (uint) {\r\n        return totalVotos;\r\n    }\r\n\r\n    function obterNumeroCodigosPorCandidato(\r\n        uint _candidatoId\r\n    ) public view returns (uint) {\r\n        return codigosPorCandidato[_candidatoId].length;\r\n    }\r\n\r\n    function obterCodigoPorCandidatoEIndice(\r\n        uint _candidatoId,\r\n        uint _indice\r\n    ) public view returns (string memory) {\r\n        require(\r\n            _indice < codigosPorCandidato[_candidatoId].length,\r\n            \"Indice fora dos limites\"\r\n        );\r\n        return codigosPorCandidato[_candidatoId][_indice];\r\n    }\r\n\r\n    function obterCodigosPorCandidato(\r\n        uint _candidatoId,\r\n        uint _inicio,\r\n        uint _fim\r\n    ) public view returns (string[] memory) {\r\n        require(\r\n            _inicio < codigosPorCandidato[_candidatoId].length,\r\n            \"Inicio fora dos limites\"\r\n        );\r\n\r\n        if (_fim > codigosPorCandidato[_candidatoId].length) {\r\n            _fim = codigosPorCandidato[_candidatoId].length;\r\n        }\r\n\r\n        require(\r\n            _fim - _inicio <= 100,\r\n            \"Muitos codigos solicitados. Limite: 100\"\r\n        );\r\n\r\n        string[] memory resultado = new string[](_fim - _inicio);\r\n\r\n        for (uint i = _inicio; i < _fim; i++) {\r\n            resultado[i - _inicio] = codigosPorCandidato[_candidatoId][i];\r\n        }\r\n\r\n        return resultado;\r\n    }\r\n}\r\n",
  "sourcePath": "C:\\Users\\xico\\Desktop\\utad\\2_Semestre\\PROJ\\Votium\\Truffle\\contracts\\Voto.sol",
  "compiler": {
    "name": "solc",
    "version": "0.8.13+commit.abaa5c0e.Emscripten.clang"
  },
  "schemaVersion": "3.4.16",
  "updatedAt": "2025-06-13T21:38:42.143Z",
  "networkType": "ethereum",
  "devdoc": {
    "kind": "dev",
    "methods": {},
    "version": 1
  },
  "userdoc": {
    "kind": "user",
    "methods": {},
    "version": 1
  }
}