{
  "contractName": "votoTeste",
  "abi": [
    {
      "anonymous": false,
      "inputs": [
        {
          "indexed": false,
          "internalType": "address",
          "name": "eleitor",
          "type": "address"
        },
        {
          "indexed": false,
          "internalType": "uint256",
          "name": "candidato",
          "type": "uint256"
        },
        {
          "indexed": false,
          "internalType": "bytes32",
          "name": "codigoVerificacao",
          "type": "bytes32"
        }
      ],
      "name": "VotoRegistrado",
      "type": "event"
    },
    {
      "inputs": [
        {
          "internalType": "address",
          "name": "",
          "type": "address"
        }
      ],
      "name": "jaVotou",
      "outputs": [
        {
          "internalType": "bool",
          "name": "",
          "type": "bool"
        }
      ],
      "stateMutability": "view",
      "type": "function",
      "constant": true
    },
    {
      "inputs": [
        {
          "internalType": "bytes32",
          "name": "",
          "type": "bytes32"
        }
      ],
      "name": "votos",
      "outputs": [
        {
          "internalType": "address",
          "name": "eleitor",
          "type": "address"
        },
        {
          "internalType": "uint256",
          "name": "candidato",
          "type": "uint256"
        },
        {
          "internalType": "bytes32",
          "name": "codigoVerificacao",
          "type": "bytes32"
        }
      ],
      "stateMutability": "view",
      "type": "function",
      "constant": true
    },
    {
      "inputs": [
        {
          "internalType": "uint256",
          "name": "_candidato",
          "type": "uint256"
        }
      ],
      "name": "votar",
      "outputs": [],
      "stateMutability": "nonpayable",
      "type": "function"
    },
    {
      "inputs": [
        {
          "internalType": "bytes32",
          "name": "_codigoVerificacao",
          "type": "bytes32"
        }
      ],
      "name": "verificarVoto",
      "outputs": [
        {
          "internalType": "uint256",
          "name": "",
          "type": "uint256"
        }
      ],
      "stateMutability": "view",
      "type": "function",
      "constant": true
    }
  ],
  "bytecode": "0x608060405234801561001057600080fd5b50610347806100206000396000f3fe608060405234801561001057600080fd5b506004361061004c5760003560e01c806321606831146100515780633260e7a214610066578063943e2b851461009e578063af65dc0e146100fc575b600080fd5b61006461005f3660046102c8565b61011d565b005b6100896100743660046102e1565b60016020526000908152604090205460ff1681565b60405190151581526020015b60405180910390f35b6100d76100ac3660046102c8565b6000602081905290815260409020805460018201546002909201546001600160a01b03909116919083565b604080516001600160a01b039094168452602084019290925290820152606001610095565b61010f61010a3660046102c8565b61025b565b604051908152602001610095565b3360009081526001602052604090205460ff16156101705760405162461bcd60e51b815260206004820152600b60248201526a4a6120766f74617374652160a81b60448201526064015b60405180910390fd5b6040516bffffffffffffffffffffffff193360601b16602082015242603482015260009060540160408051808303601f19018152828252805160209182012060608085018452338086528386018881528686018481526000858152808752878120985189546001600160a01b0319166001600160a01b0390911617895591516001808a01919091559051600290980197909755818152868552859020805460ff191690961790955583519485529184018690529183018290529092507f7b9b313740b9475ec2ca0ed51fab6366d585d0df899cdeb55427f4cfa331eb3f910160405180910390a15050565b6000818152602081905260408120546001600160a01b03166102b25760405162461bcd60e51b815260206004820152601060248201526f436f6469676f20696e76616c69646f2160801b6044820152606401610167565b5060009081526020819052604090206001015490565b6000602082840312156102da57600080fd5b5035919050565b6000602082840312156102f357600080fd5b81356001600160a01b038116811461030a57600080fd5b939250505056fea2646970667358221220a78506371118b3d1758c9a0b6d40744e0b7f031de98e12ce8f073f5c5cdbfc7064736f6c634300080d0033",
  "immutableReferences": {},
  "source": "// SPDX-License-Identifier: MIT\r\npragma solidity ^0.8.13;\r\n\r\ncontract votoTeste {\r\n    struct Voto {\r\n        address eleitor;\r\n        uint256 candidato;\r\n        bytes32 codigoVerificacao;\r\n    }\r\n\r\n    mapping(bytes32 => Voto) public votos;\r\n    mapping(address => bool) public jaVotou;\r\n\r\n    event VotoRegistrado(\r\n        address eleitor,\r\n        uint256 candidato,\r\n        bytes32 codigoVerificacao\r\n    );\r\n\r\n    function votar(uint256 _candidato) public {\r\n        require(!jaVotou[msg.sender], \"Ja votaste!\");\r\n\r\n        bytes32 codigoVerificacao = keccak256(\r\n            abi.encodePacked(msg.sender, block.timestamp)\r\n        );\r\n\r\n        votos[codigoVerificacao] = Voto(\r\n            msg.sender,\r\n            _candidato,\r\n            codigoVerificacao\r\n        );\r\n        jaVotou[msg.sender] = true;\r\n\r\n        emit VotoRegistrado(msg.sender, _candidato, codigoVerificacao);\r\n    }\r\n\r\n    function verificarVoto(\r\n        bytes32 _codigoVerificacao\r\n    ) public view returns (uint256) {\r\n        require(\r\n            votos[_codigoVerificacao].eleitor != address(0),\r\n            \"Codigo invalido!\"\r\n        );\r\n        return votos[_codigoVerificacao].candidato;\r\n    }\r\n}\r\n",
  "sourcePath": "C:\\Users\\xico\\Desktop\\utad\\2_Semestre\\PROJ\\Votium\\Truffle\\contracts\\votoTeste.sol",
  "compiler": {
    "name": "solc",
    "version": "0.8.13+commit.abaa5c0e.Emscripten.clang"
  },
  "schemaVersion": "3.4.16",
  "updatedAt": "2025-03-27T10:25:52.371Z",
  "networkType": "ethereum",
  "devdoc": {
    "kind": "dev",
    "methods": {},
    "version": 1
  },
  "userdoc": {
    "kind": "user",
    "methods": {},
    "version": 1
  }
}